S016000044494F4445535F434845434B45522E7372656302
S31508000000002000202D0B0008490B00084D0B0008A6
S31508000010510B0008550B0008590B0008000000009A
S315080000200000000000000000000000005D0B000852
S31508000030610B000800000000650B0008690B00084A
S315080000406D0B0008710B0008750B0008790B00088A
S315080000507D0B0008810B0008850B0008890B00083A
S315080000608D0B0008910B0008950B0008DB020008B1
S315080000709D0B0008A10B0008A50B0008A90B00089A
S31508000080AD0B0008B10B0008B50B00080000000016
S31508000090000000000000000000000000B90B000886
S315080000A0BD0B0008C10B0008C50B0008C90B0008EA
S315080000B0CD0B0008D10B0008D50B0008D90B00089A
S315080000C0DD0B0008E10B0008E50B0008E90B00084A
S315080000D0ED0B0008F10B0008F50B0008F90B0008FA
S315080000E0FD0B0008010C0008050C000800000000C4
S315080000F000000000000000000000000000000000F2
S3150800010000000000000000000000000000000000E1
S315080001100000000000000000090C00080D0C000893
S31508000120012110F01F029140964A40B2430942F855
S315080001302310704781B00021009100994FF47A721C
S3150800014002FB00F2914203D00099491C0091F4E7A2
S3150800015001B0704780B50121142000F037F94FF43B
S315080001604070ADF8000010208DF8030002208DF8CD
S3150800017002006946844800F03BF90220ADF8000009
S3150800018000208DF803006946804800F031F9012106
S315080001904FF4007000F01AF97D48006850F004002A
S315080001A07B4908607A4800684007FBD579480068AB
S315080001B050F00100774908607548006850F4E0403F
S315080001C0734908607248006850F400407049086036
S315080001D06F48006850F002006D4908606E48006874
S315080001E050F480606C4908606C48006850F4004020
S315080001F06A4908606648006850F00100644908606A
S315080002006348006850F40010614908606448006853
S315080002104007FBD5624800F094F90028FAD16048F7
S3150800022000F09BF95E4800F09DF90028FAD10121FB
S315080002305B4800F0A3F90121594800F075F95448C4
S31508000240006850F48070524908605648006850F0BB
S3150800025001005449086054485449086054485549AF
S3150800026008605548006830F01000534908604FF49C
S315080002708060524908605048006830F040004E4996
S3150800028008604D48006850F080004B4908604A48AD
S31508000290006850F48070484908604748006850F480
S315080002A08060454908604448006850F44050424917
S315080002B008604148006850F002003F49086042F271
S315080002C01070FFF737FF3C48006850F001003A49C4
S315080002D008600B20FFF724FFFEE780B5344800F0DE
S315080002E019F83748006850F0020035490860344864
S315080002F0006850F00400324908603148006850F040
S3150800030001002F4908602C48006850F001002A496E
S31508000310086001BD70B5C0B0040068462949FC22D2
S3150800032000F03AF90025002600200500ADB2B5F523
S31508000330707F24DA00202449ADB241F82500002058
S315080003400600B6B2402E18DAADB2B6B2701934F855
S31508000350100000F04DF96946B6B251F8261000F0C3
S3150800036057F91949ADB251F8251000F0BDF91649EB
S31508000370ADB241F82500761CE3E76D1CD6E740B020
S3150800038070BD000000E100E00010014000080140D7
S315080003900824014010240140042401403824014067
S315080003A000240140141002403C2401401000024081
S315080003B00010002014000240080002400C00024011
S315080003C0040002407C09000800000020C9B2002988
S315080003D005D0064A12680243044B1A6004E0034A31
S315080003E012688243014B1A607047000018100240D9
S315080003F0F0B500270022002300240025002691F8E6
S3150800040003C01CF00F0C674691F803C05FEACC6C7A
S3150800041003D591F802C05CEA070791F800C05FEAC5
S315080004200C6C3AD0D0F800C065465FF0000C634605
S31508000430082B31D25FF0010C1CFA03FC6446B1F8B4
S3150800044000C014EA0C0C6246A24223D15FEA830C70
S3150800045064465FF00F0C1CFA04FC6646B54317FAAF
S3150800046004FC5CEA050591F803C0BCF1280F06D127
S315080004705FF0010C1CFA03FCC0F814C00AE091F8FE
S3150800048003C0BCF1480F05D15FF0010C1CFA03FC50
S31508000490C0F810C05B1CCBE70560B1F800C0BCF122
S315080004A0FF0F3FDDD0F804C065465FF0000C6346D9
S315080004B0082B36D25FF0010C13F1080E1CFA0EFC5D
S315080004C06446B1F800C014EA0C0C6246A24226D172
S315080004D05FEA830C64465FF00F0C1CFA04FC664660
S315080004E0B54317FA04FC5CEA050591F803C0BCF1AC
S315080004F0280F07D15FF0010C13F1080E1CFA0EFC49
S31508000500C0F814C091F803C0BCF1480F07D15FF0DA
S31508000510010C13F1080E1CFA0EFCC0F810C05B1C87
S31508000520C6E74560F0BD0000C9B2002904D082685C
S3150800053052F00102826003E082685208520082602B
S315080005407047010000208A68120702D501221000B0
S3150800055001E000221000C0B27047816851F0040122
S3150800056081607047010000208A68520702D501227F
S31508000570100001E000221000C0B27047C9B200297D
S3150800058004D0826852F4A002826003E0826832F4E2
S31508000590A002826070470000103A07D330B4B1E871
S315080005A03810103AA0E83810F9D230BC530724BFE7
S315080005B0B1E80810A0E8081044BF51F8043B40F819
S315080005C0043BD20724BF31F8022B20F8022B44BF84
S315080005D00B7803707047083A07D3B1E80810083A51
S315080005E040F8043B40F804CBF7D25307E4E7000091
S315080005F0002800BF0AD0B0FA80F18840D1F19D01E9
S31508000600C905020672F1004241EB1020704700004E
S31508000610FF2212EAD05C1DBF12EAD15394459342D9
S315080006202BE09C44D30780EA01021A4043EA0020E3
S3150800063043EA0121A1FB0030410038BF40007CF1AC
S315080006407F010BDBFE294ADA5B0842EAC15153EA0D
S31508000650006373F1004C51EB10207047D1F1080C80
S31508000660DCF120012FDB5B0810FA01F10B4373F173
S31508000670004120FA0CF05041704794451CBF02EA2D
S31508000680D153934280EA010202F000421DD0400095
S3150800069019D0490017D05BB9634514D00902B1FADD
S315080006A081F39940BCEB030CC00140F00040C1E760
S315080006B00002B0FA80FC10FA0CF0B3EB0C0CC9017E
S315080006C041F00041B6E71000704740000AD04900E3
S315080006D008D010F1807F94BF11F1807F02E042F0CC
S315080006E0FF407047D043704790EA010F44BF81F03E
S315080006F0004100F03BB800BF421A3CBF801A891877
S315080007004FF0004CC0F3C752FF2A24D0C1F3C75399
S3150800071013B3D21AD2F1190327DD4CEA01214CFA98
S3150800072003F321EA0303D140C20D4CEA0020401826
S3150800073034BF20EA0C004CEA5000D20553EA0063A5
S3150800074073EB0C0C52EB1020420012F1807F38BF7D
S315080007507047C00DC0057047490212BF9A4200EBA8
S315080007605120F8E7D2F11703D9D57047431A4FF04D
S3150800077000423EBF5340C01AC91800BFD3095FEAFA
S31508000780D05C13EB400F34BFB3EB410F40E07CEB7A
S31508000790D1530CD342EA012122D8D1EB402009D308
S315080007A0400A28BF5FEA500140EBCC507047401A18
S315080007B015D04002B0FA80F2521C9040400A4FEA27
S315080007C03C23B3EB026384BF00EB730007E040F4FD
S315080007D000001A16DB07C2F10102D0401843704721
S315080007E0182BFCDC31FA03F202FA03F3591A38BF64
S315080007F042F00102D2EB40203CBF4000ACF1010CB4
S315080008005FEACC5CC20572F100414CEB50207047A0
S3150800081013EB400F0FD24B0009D0ACEBD153022B90
S3150800082003DB4902172BDDDD70479143401A43006D
S31508000830D5D10020704713EB410FD0D36FF00000DD
S315080008407047000080B54648006850F001004449EA
S3150800085008604448006844490840424908604048DE
S315080008600068424908403E4908603D48006830F43F
S3150800087080203B4908603B48006830F4FE0039494F
S3150800088008605FF41F003A4908600020394908608B
S3150800089000F005F85FF000603749086001BD80B5D3
S315080008A000F001F801BD82B0002001900020009000
S315080008B02B48006850F480302949086028480068A9
S315080008C010F4003000900198401C01900098002810
S315080008D003D10198B0F5A06FF0D1214800688003D4
S315080008E002D50120009001E0002000900098012820
S315080008F033D11C4800681B4908601A480068194922
S31508000900086018480068174908601648006830F4F7
S315080009107C10144908601348006850F4981011496F
S3150800092008600F48006850F080700D4908600C4850
S3150800093000688001FBD50B480068800880000949DB
S3150800094008600848006850F0020006490860054833
S31508000950006810F00C000828F9D102B070470000B2
S3150800096000100240041002400000FFF8FFFFF6FEE8
S31508000970081002402C10024008ED00E0FC79D8BBB4
S31508000980AAB401BC610E09BCF14EF8BBC118AEBBD6
S3150800099043A1C7BAD2806C3B7E441E3C3308833CD5
S315080009A03ECFB23CAD82D73C1891EA3C3DBEE63C10
S315080009B00401C93C4B2D913CA99A043CE5436BBB09
S315080009C0110785BCB1C4E9BC951220BDA4A93EBDDA
S315080009D00F404CBDA90D46BDDA5C2BBDDA87FBBCC2
S315080009E0FE3282BCEBD89B3A5A139A3C4ABE0F3D5C
S315080009F0D7AE453D19D2683D0545753D19D2683DC6
S31508000A00D7AE453D4ABE0F3D5A139A3CEBD89B3AA2
S31508000A10FE3282BCDA87FBBCDA5C2BBDA90D46BD6B
S31508000A200F404CBDA4A93EBD951220BDB1C4E9BC7A
S31508000A30110785BCE5436BBBA99A043C4B2D913C39
S31508000A400401C93C3DBEE63C1891EA3CAD82D73C60
S31508000A503ECFB23C3308833C7E441E3CD2806C3B7E
S31508000A6043A1C7BAC118AEBBF14EF8BB610E09BCAB
S31508000A70AAB401BCFC79D8BB19E050F8041BCB0713
S31508000A8044BFA9F101035918121F0023042A41F88B
S31508000A90043BF9D25FEA827C0B4604D54FF0000C82
S31508000AA0A1F800C09B1CD10744BF0021197050F85B
S31508000AB0042B002AE1D1704710B50749794418314B
S31508000AC0064C7C44163404E00A68081D5118884709
S31508000AD00146A142F8D110BD08000000140000002C
S31508000AE099FFFFFF0018000000000020000000002A
S31508000AF000F00BF8002801D0FFF7DEFF0020C04603
S31508000B00C046FFF727FB00F002F80120704700F007
S31508000B1001B800000746384600F002F8FBE7000077
S31508000B202021090326311820ABBEF9E70148804782
S31508000B3001480047450800083D0B0008C046C04666
S31508000B40C046C046FFF7D4FFFFF7FEBFFFF7FEBF5C
S31508000B50FFF7FEBFFFF7FEBFFFF7FEBFFFF7FEBFBB
S31508000B60FFF7FEBFFFF7FEBFFFF7FEBFFFF7FEBFAB
S31508000B70FFF7FEBFFFF7FEBFFFF7FEBFFFF7FEBF9B
S31508000B80FFF7FEBFFFF7FEBFFFF7FEBFFFF7FEBF8B
S31508000B90FFF7FEBFFFF7FEBFFFF79FBBFFF7FEBFDE
S31508000BA0FFF7FEBFFFF7FEBFFFF7FEBFFFF7FEBF6B
S31508000BB0FFF7FEBFFFF7FEBFFFF7FEBFFFF7FEBF5B
S31508000BC0FFF7FEBFFFF7FEBFFFF7FEBFFFF7FEBF4B
S31508000BD0FFF7FEBFFFF7FEBFFFF7FEBFFFF7FEBF3B
S31508000BE0FFF7FEBFFFF7FEBFFFF7FEBFFFF7FEBF2B
S31508000BF0FFF7FEBFFFF7FEBFFFF7FEBFFFF7FEBF1B
S31508000C00FFF7FEBFFFF7FEBFFFF7FEBFFFF7FEBF0A
S70508000B3DAA
