S016000044494F4445535F434845434B45522E7372656302
S3150800000008010020D91F0008F51F0008F91F00087D
S31508000010FD1F000801200008052000080000000058
S315080000200000000000000000000000000920000891
S315080000300D20000800000000112000081520000807
S31508000040192000081D200008212000082520000886
S31508000050292000082D200008312000083520000836
S31508000060392000083D2000084120000845200008E6
S31508000070492000084D200008512000085520000896
S31508000080592000085D200008612000086520000846
S31508000090692000086D2000087120000875200008F6
S315080000A0792000087D2000088120000885200008A6
S315080000B0892000088D200008912000089520000856
S315080000C0992000089D200008A1200008A520000806
S315080000D0A9200008AD200008B1200008B5200008B6
S315080000E0B9200008BD200008C1200008C520000866
S315080000F0C9200008CD200008D1200008D520000816
S31508000100D9200008DD200008E1200008E5200008C5
S31508000110E9200008ED200008F1200008F520000875
S31508000120F9200008FD200008012100080521000823
S3150800013070B572B600F08CFCDFF88C48DFF888588A
S315080001400026C82E06DA280000F01FFC15F5006503
S31508000150761CF6E7DFF87408006850F00100DFF84F
S315080001606C1808600020DFF868180880DFF8600857
S315080001700088B0F5805F80F29D80DFF8540800881B
S3150800018000F0B0FCDFF84C1800F0BCFC5FF08B41C7
S3150800019000F024FDDFF840180860DFF83C08006826
S315080001A000F09AFDDFF83428DFF8343800F0BCFD9B
S315080001B000F08CFEDFF82C180860DFF828080068C5
S315080001C000F0CCFEDFF820180860DFF80C0800689D
S315080001D0DFF8181800F0C6FE27D2DFF8FC0700681B
S315080001E05FF0404100F0FAFC00F0CEFEDFF80018A0
S315080001F000F088FC5FF07E5100F0E0FEDFF8F417AF
S315080002000860DFF8E4070068DFF8E817096800F017
S3150800021079FC5FF0834100F0D1FEDFF8DC17DFF8E8
S31508000220B027128841F822003CE0DFF8AC070068E6
S31508000230DFF8C81700F096FE2BD2DFF89C07006897
S31508000240DFF8BC1700F0BAFEDFF8B81700F0C6FCF6
S3150800025000F09AFEDFF8B01700F054FC5FF080411A
S3150800026000F0ACFEDFF88C170860DFF87C07006842
S31508000270DFF88017096800F045FC5FF0834100F05D
S315080002809DFEDFF87417DFF84827128841F8220028
S3150800029008E05FF08340DFF86017DFF8342712883C
S315080002A041F82200DFF828070088401CDFF82017ED
S315080002B008805BE70020DFF854170880DFF84C0752
S315080002C00088B0F5004F80F22F830020DFF8401732
S315080002D008800020DFF83C1708800020DFF8381770
S315080002E008800020DFF834170880DFF82007008828
S315080002F0B0F5805F0CDADFF80007DFF81017098819
S3150800030050F8210000F09CFEDFF81417087003E08F
S315080003101020DFF80C170870DFF804070078C0060D
S3150800032007D5DFF8EC06008850F48050DFF8E016B1
S315080003300880DFF8EC060078000707D5DFF8D00656
S31508000340008850F40060DFF8C8160880DFF8D00689
S315080003500078400707D5DFF8B806008850F48060B3
S31508000360DFF8AC160880DFF8B8060078800707D5EE
S31508000370DFF89C06008850F40070DFF894160880B1
S31508000380DFF89C060078C00707D5DFF884060088E2
S3150800039050F48070DFF878160880DFF87006008859
S315080003A0B0F5805F11DADFF87806007800F06AFEAB
S315080003B002000B000020DFF86C1600F071FE00F05A
S315080003C02FFFDFF85C16087003E01020DFF85016E0
S315080003D00870DFF84C060078C00607D5DFF838063F
S315080003E0008850F00200DFF830160880DFF8300683
S315080003F00078000707D5DFF82006008850F00100CE
S31508000400DFF814160880DFF818060078400707D5C5
S31508000410DFF80406008850F40040DFF8FC15088071
S31508000420DFF8FC050078800707D5DFF8EC050088BB
S3150800043050F48040DFF8E0150880DFF8E40500781E
S31508000440C00707D5DFF8D005008850F40050DFF85C
S31508000450C8150880DFF8B4050088B0F57A6F01DBA7
S31508000460012000E00020DFF8A4150988B1F5FD5F3A
S3150800047001DA012100E00021C0B208420FD0DFF8FE
S315080004807805DFF88815098810EB8100B0F57A50F1
S31508000490006800F0D5FDDFF88815087003E0102025
S315080004A0DFF87C150870DFF878050078C00607D5F0
S315080004B0DFF86005008850F48040DFF8581508809A
S315080004C0DFF85C050078000707D5DFF848050088DF
S315080004D050F40050DFF83C150880DFF84405007832
S315080004E0400707D5DFF82C05008850F48050DFF860
S315080004F024150880DFF828050078800707D5DFF877
S315080005001405008850F40060DFF808150880DFF845
S3150800051010050078C00707D5DFF8F804008850F4FE
S315080005208060DFF8F0140880DFF8E0040088B0F592
S315080005307A6F01DB012000E00020DFF8D01409887B
S31508000540B1F5FD5F01DA012100E00021C0B20842E1
S3150800055008D0DFF8CC040078D0F12000DFF8C0140A
S31508000560087003E01020DFF8B8140870DFF8B0044C
S315080005700078C00607D5DFF89C04008850F0040010
S31508000580DFF890140880DFF898040078000707D58C
S31508000590DFF88004008850F00200DFF8781408803D
S315080005A0DFF87C040078400707D5DFF86804008880
S315080005B050F00100DFF85C140880DFF86404007866
S315080005C0800707D5DFF85004008850F02000DFF8D0
S315080005D048140880DFF848040078C00707D5DFF814
S315080005E03804008850F01000DFF82C140880DFF873
S315080005F01C040088B0F5FA5F01DB012000E000204A
S31508000600DFF808140988B1F53D5F01DA012100E039
S315080006100021C0B208420FD0DFF8DC03DFF8EC1384
S31508000620098810EB8100B0F5FA40006800F008FD73
S31508000630DFF8EC13087003E01020DFF8E413087005
S31508000640DFF8DC030078C00607D5DFF8C4030088A6
S3150800065050F08000DFF8B8130880DFF8C40300788C
S31508000660000707D5DFF8A803008850F04000DFF838
S31508000670A0130880DFF8A8030078400707D5DFF83D
S315080006809003008850F02000DFF884130880DFF814
S3150800069090030078800707D5DFF87403008850F0C8
S315080006A01000DFF86C130880DFF874030078C007C1
S315080006B007D5DFF85C03008850F00800DFF8501310
S315080006C00880DFF848030088B0F5FA5F08DDDFF830
S315080006D050030078D0F12000DFF84413087003E0D7
S315080006E01020DFF83C130870DFF834030078C006E2
S315080006F007D5DFF81C03008850F00400DFF8101354
S315080007000880DFF81C030078000707D5DFF8000328
S31508000710008850F00200DFF8F8120880DFF80003BE
S315080007200078400705D5BA48008850F00100B84956
S315080007300880BB480078800705D5B748008850F080
S315080007400800B5490880B6480078C00705D5B248FC
S31508000750008850F00400B0490880AC48008842F68A
S31508000760E061884201DB012000E00020A7490988F2
S3150800077043F6E062914201DA012100E00021C0B2AD
S3150800078008420BD09C48A149098810EB8100A6496C
S31508000790085800F055FCA249087002E01020A0494C
S315080007A008709F480078C00605D59A48008850F416
S315080007B00070984908809A480078000705D595483A
S315080007C0008850F48070934908809548007840075F
S315080007D005D59048008850F080008E4908809048DA
S315080007E00078800705D58B48008850F04000894975
S315080007F008808B480078C00705D58648008850F0E1
S315080008002000844908808148008842F6E1618842D0
S3150800081006DB83480078D0F120008149087002E0A1
S3150800082010207F4908707E480078C00605D57A48AA
S31508000830008850F4007078490880794800780007E5
S3150800084005D57548008850F4807073490880744847
S315080008500078400705D57048008850F080006E493A
S3150800086008806F480078800705D56B48008850F0E7
S315080008704000694908806A480078C00705D5654878
S31508000880008850F40040634908806348008862493C
S31508000890098889B2090A89B280B211EB00215E4A39
S315080008A011805E49098808005C49098889B2090AE5
S315080008B089B280B211EB0021584A11805B495C4A23
S315080008C011605C495A4A11604049096851F00101B2
S315080008D03E4A116058490968C907FBD44C4909883A
S315080008E0218055490968C907FBD4A41C4A490988C7
S315080008F0218051490968C907FBD4A41C45490988C0
S3150800090021804D490968C907FBD4A41C43490988B5
S31508000910218049490968C907FBD4A41C3B490988B1
S31508000920491C3A4A1180C9E4284800684008400032
S31508000930264908602548006850F080002349086069
S315080009403E4B3F4A3F49404800F01EF84FF00064CE
S3150800095004F580344FF48025A5F1010526464FF0AD
S315080009600009B6E880010780A1F8008097FA87F7A2
S3150800097098FA88F81780A3F80080A6EB040606EA1A
S3150800098005064E452644ECE770472849284A116073
S315080009902849274A11600D49096851F002010B4A96
S315080009A011602A4908600949096851F04001074A57
S315080009B0116021490968C907FBD40449096831F05F
S315080009C00201024A11607047000001081020024027
S315080009D0184100200000144208410020182D4454F4
S315080009E0FB2119400C410020104100200000C040A6
S315080009F00000604114410020080100200000404129
S31508000A000000C0C0000040C0000050411A4100204C
S31508000A101C4100201E4100202041002022410020C8
S31508000A2024410020000040408044FFFF2301674521
S31508000A3004200240AB89EFCD0C2002400C14014083
S31508000A400C1001400C0C01400C0801401420024017
S31508000A5080B501217D2000F009FC0121164800F02F
S31508000A60B2FC0121154800F0AEFC10208DF80300F9
S31508000A7003208DF8020049F6FF70ADF800006946BC
S31508000A800F4800F005FC4FF6FF70ADF80000694608
S31508000A900C4800F0FDFB4FF6FF70ADF80000694604
S31508000AA0094800F0F5FB0420ADF800006946074840
S31508000AB000F0EEFB01BD000000013000000230002E
S31508000AC000080140000C01400010014000140140DC
S31508000AD0002840F10980F446404200F005F850F03D
S31508000AE000406047002800BF0AD0B0FA80F188406D
S31508000AF0D1F19D01C905020672F1004241EB1020B1
S31508000B0070470000FF2212EAD05C1DBF12EAD153DB
S31508000B10944593422BE09C44D30780EA01021A408D
S31508000B2043EA002043EA0121A1FB0030410038BF17
S31508000B3040007CF17F010BDBFE294ADA5B0842EABA
S31508000B40C15153EA006373F1004C51EB1020704712
S31508000B50D1F1080CDCF120012FDB5B0810FA01F15A
S31508000B600B4373F1004120FA0CF05041704794454D
S31508000B701CBF02EAD153934280EA010202F0004206
S31508000B801DD0400019D0490017D05BB9634514D071
S31508000B900902B1FA81F39940BCEB030CC00140F09D
S31508000BA00040C1E70002B0FA80FC10FA0CF0B3EB83
S31508000BB00C0CC90141F00041B6E71000704740002F
S31508000BC00AD0490008D010F1807F94BF11F1807FC8
S31508000BD002E042F0FF407047D043704710B5FF234C
S31508000BE013EAD0541DBF13EAD1529C429A4239E007
S31508000BF0A41ADA0780EA0103134042EA012142EA0D
S31508000C000020421A3CBF641E01EB4202090AB2FBED
S31508000C10F1FE01FB1E221202B2FBF1F001FB1022CB
S31508000C206EF30F201202B2FBF1FE4EEA00207F346B
S31508000C3006DDFE2C24DA53EA500050EBC45010BDF2
S31508000C40D4F1020401FB1E2240F08071192C1DDC30
S31508000C5021FA04F0C4F12004A140114371F10042C5
S31508000C60584110BD9C421ABF03EAD1529A420FE07E
S31508000C7080EA010E0EF00043400004D0490016D168
S31508000C8043F0FF4010BD490008BFD343180010BD0C
S31508000C909C4205D1D21AF7D001F00041484010BD58
S31508000CA04A0212BF0846484000F0004010BD4AB943
S31508000CB00902B1FA81F2914044B1A418C00140F08A
S31508000CC000409EE7C90141F0004152420002B0FAD5
S31508000CD080F4A040141B94E75FF0FF0C1CEAD05187
S31508000CE014BF614506E0C110400721F0E04101F15B
S31508000CF06051704779B900F0004100020AD0B0FA95
S31508000D0080FC00FA0CF001F16051A1EB0C5101EBEB
S31508000D10D0214005704741020CBF40F4E0016FF056
S31508000D200001002070470000B0B581EA030C0CF002
S31508000D30004C40F2FF7515EA11541DBF15EA13570A
S31508000D40AC42AF4239E0E41923EA455343F4801331
S31508000D50C90241F0004141EA505EC7021100A7FBF3
S31508000D60020200284FF00000EEFB01204FF00001C0
S31508000D70E3FB072118BF42F0010240180021494150
S31508000D80E3FB0E01A4F580640F0302D25200404132
S31508000D90494154F101046CDD470872F1004250F1F3
S31508000DA0000051EB0451A1F580115CBF41EA0C012A
S31508000DB0B0BD4CEA05510020B0BD05EA1357AC4258
S31508000DC014BFAF4241E050EA410E1CBF52EA430E3F
S31508000DD002E061460020B0BD24423C441BD15FEAD4
S31508000DE0070EF6D0090302BF01460020AEF1140E25
S31508000DF0B1FA81F7AEEB070401FA07FE0C37C7F123
S31508000E00200100FA07F7C8404EEA000E23EA4553C8
S31508000E1043F48013A2E733F00043B3FA83F704BF21
S31508000E20B2FA82FE77440B3FE41BB7F1200E2FBFC0
S31508000E3002FA0EF3BB40C7F1200E22FA0EFE38BFA7
S31508000E4043EA0E03BA40641C82E750EA410E14BF17
S31508000E5052EA430E6FF000014FF4001717EB430FE9
S31508000E608ABF194617EB410FB5E74CEA0551002032
S31508000E70B0BDD4F10104B4F120070FDAC4F120079C
S31508000E80520828BF42F0010210FA07F501FA07F7DF
S31508000E90E1BF2A43E0403843E1400FE0352C98DCB7
S31508000EA0C7F1200452EA400220FA07F218BF42F0BE
S31508000EB0010231FA07F0A1400A43002172F100420B
S31508000EC050F1000051EB0C01B0BD00004FEAF17C77
S31508000ED0BCF1E04C2CBFBCF5001F11E05FEA4C0CDE
S31508000EE034BFBCF17F5F2EE05FEA9C0C4FEA0C1C16
S31508000EF04FEA3C0CC10071F100414CEB5070704751
S31508000F00C90241EA5051C00218BF41F0010141F03F
S31508000F1000414FEA6C50C0F10900212810D240EA7E
S31508000F20CC7CCCF1200C11FA0CF070F10040CCF11D
S31508000F30200C21FA0CF00CF0004C40EB0C0070472A
S31508000F404FEACC707047490011F5001F04D84FEAE4
S31508000F50CC10FF30C0057047C8177047002100F055
S31508000F606DBA00004FF0807C1CEB400F94BF1CEB61
S31508000F70410F05E040EA010C5FEA4C0C01D28842B9
S31508000F80704718BF8142704701B5C0F3C751FF29A2
S31508000F9005D059B9400209D14FF07E5002BD400232
S31508000FA000980AD1002808D5002002BD00224FF07B
S31508000FB07E51684600F05CFB009802BD90EA010F7E
S31508000FC044BF81F0004100F067BC00BF421A3CBF35
S31508000FD0801A89184FF0004CC0F3C752FF2A24D054
S31508000FE0C1F3C75313B3D21AD2F1190327DD4CEA5A
S31508000FF001214CFA03F321EA0303D140C20D4CEA5E
S315080010000020401834BF20EA0C004CEA5000D205F4
S3150800101053EA006373EB0C0C52EB1020420012F1FA
S31508001020807F38BF7047C00DC0057047490212BFA0
S315080010309A4200EB5120F8E7D2F11703D9D5704749
S315080010404100090E7F3915D4D1F11F0114D440008F
S3150800105007D2C00140F00040C84048BF6FF00040CA
S315080010607047C00140F00040C8404CBF4FF00040F8
S31508001070404270470020704700424FF0004058BF7A
S31508001080C0437047010000BF09D0B0FA80F188401C
S31508001090C91CC1F58461090501EBD02140057047DB
S315080010A0F0B44FF0004591EA030F44BF6B4000F0DF
S315080010B05FBC00BF841A71EB030604D26E40001BA6
S315080010C0B141121973414FF4001C1CEB410F34BF98
S315080010D07CEB430684E00C0DA4EB1356362E7DDC20
S315080010E0012E43DC45EAC32343EA525312BFD20218
S315080010F092025B08240545EAC12141EA5051D2EB28
S31508001100C020994125D407D1B0FA80F610FA06F125
S3150800111064D00020203608E0B1FA81F6B140C6F165
S31508001120200220FA02F21143B0404FEAF474B4EBFD
S31508001130465434F001064FEA74040AD8D6F5001668
S31508001140760D04F00044F04061FA06F25040F14092
S315080011504840C00A40EA415021F0004128BF5FEAF2
S31508001160500550F1000044EBD12137E045EAC3238E
S31508001170DB0A45EAC121C90AB6F120050EDD42EAB5
S315080011800242120CC5F1200603FA06F6EB4042EAC3
S3150800119006056D42984161F100010DE062FA06F517
S315080011A0F240554063FA06FC82EA0C02F3405A40C4
S315080011B06D42904161EB030111F4801F05D1641E55
S315080011C0620502D06D004041494121F4801143086F
S315080011D075F1004350F1000041EB0451F0BC704733
S315080011E01CEB410F15D223F0004352EA43060BD0FD
S315080011F04FEA4C0CBCEB410F04D80C0D661E342E7E
S31508001200B7DDEBE7801A994150EA410608BF00218D
S31508001210E4E708BF1CEB430F28BF6FF00001DDE7CA
S31508001220F446400D40EAC120490006D200F00EF807
S31508001230004248BF6FF00040604700F007F84FF0E3
S31508001240004188428CBF08464042604740F0004053
S31508001250490DA1F58061491C05D4D1F11F0154BF80
S31508001260C840C01770474FF000007047C9B2002940
S3150800127005D0064A12680243044B1A6004E0034A82
S3150800128012688243014B1A6070470000181002402A
S31508001290F0B500270022002300240025002691F837
S315080012A003C01CF00F0C674691F803C05FEACC6CCC
S315080012B003D591F802C05CEA070791F800C05FEA17
S315080012C00C6C3AD0D0F800C065465FF0000C634657
S315080012D0082B31D25FF0010C1CFA03FC6446B1F806
S315080012E000C014EA0C0C6246A24223D15FEA830CC2
S315080012F064465FF00F0C1CFA04FC6646B54317FA01
S3150800130004FC5CEA050591F803C0BCF1280F06D178
S315080013105FF0010C1CFA03FCC0F814C00AE091F84F
S3150800132003C0BCF1480F05D15FF0010C1CFA03FCA1
S31508001330C0F810C05B1CCBE70560B1F800C0BCF173
S31508001340FF0F3FDDD0F804C065465FF0000C63462A
S31508001350082B36D25FF0010C13F1080E1CFA0EFCAE
S315080013606446B1F800C014EA0C0C6246A24226D1C3
S315080013705FEA830C64465FF00F0C1CFA04FC6646B1
S31508001380B54317FA04FC5CEA050591F803C0BCF1FD
S31508001390280F07D15FF0010C13F1080E1CFA0EFC9A
S315080013A0C0F814C091F803C0BCF1480F07D15FF02C
S315080013B0010C13F1080E1CFA0EFCC0F810C05B1CD9
S315080013C0C6E74560F0BDF0B40022002300250024DE
S315080013D0194E36683500C0F30346340086B232002B
S315080013E010F44016B6F5401F08D135F07065124E58
S315080013F0366836F07066104F3E6010E0C60206D5B5
S315080014000326A64033009D4355F0706507E0460D58
S31508001410F6B2360112FA06F6B54355F07065C9B24A
S31508001420002905D0460DF6B2360112FA06F63543FE
S31508001430014E3560F0BC704704000140F8B505461A
S315080014400C467E482946FFF75DFB064626F0004017
S315080014504FF09E41FFF786FD80F08D8030460021D3
S3150800146000F0F0FA94BF4FF07C504FF03F40314601
S31508001470FFF7A4FDFFF7E4FD060033D0FFF728FBCE
S315080014804FF06251FFF73EFB07466D483946FFF7B6
S3150800149039FB0146284600F0F7F9054669483946FA
S315080014A0FFF730FB0146284600F0EEF90546664888
S315080014B03946FFF727FB0146284600F0E5F90546B9
S315080014C062483946FFF71EFB0146284600F0DCF95C
S315080014D005465F483946FFF715FB0146284600F0E2
S315080014E0D3F9054606F0030004192846594900F0C1
S315080014F0A9FA09D84FF06651FFF734FD04D2E00780
S3150800150034D54FF07E5531E02946FFF7FBFA0646FB
S31508001510E00712D550483146FFF7F4FA4F49FFF76E
S315080015204DFD3146FFF7EEFA4D49FFF747FD3146C7
S31508001530FFF7E8FA4FF07E5115E028463146FFF7E7
S31508001540E1FA074647483146FFF7DCFA4649FFF70E
S3150800155035FD3146FFF7D6FA4449FFF72FFD3946E0
S31508001560FFF7D0FA2946FFF729FD0546A00763D5F8
S3150800157085F0004560E0C5F3C751FF2907D079B962
S3150800158068020DD1002C57D04FF07E5554E0680202
S3150800159052D100F069FA212101606FF00040F2BDD6
S315080015A00095684600F066FA009D2A4904192846FF
S315080015B000F048FA09D84FF06651FFF7D3FC04D279
S315080015C0E00734D54FF07E5531E02946FFF79AFA01
S315080015D00646E00712D520483146FFF793FA1F4919
S315080015E0FFF7ECFC3146FFF78DFA1D49FFF7E6FCDD
S315080015F03146FFF787FA4FF07E5115E02846314607
S31508001600FFF780FA074617483146FFF77BFA16496F
S31508001610FFF7D4FC3146FFF775FA1449FFF7CEFCFD
S315080016203946FFF76FFA2946FFF7C8FC0546A007B3
S3150800163002D585F00040F2BD2846F2BD83F9223F67
S315080016400000C94600A0FD400020A23A000034333D
S315080016500030C22EFEFF7FB99349B2BA36A02A3DA2
S31508001660DFFFFFBE6E8C4CB94283083CA1AA2ABE96
S315080016702DE9F04D04460D462768C7F3C751FF29E3
S31508001680164609D011B14FF0FF3009E078020CBFB9
S3150800169000206FF0010003E0780214BF0220012049
S315080016A0C5F3C752FF2A09D012B14FF0FF3109E03E
S315080016B069020CBF00216FF0010103E0690214BF43
S315080016C002210121020048BF00293ED4022800F069
S315080016D0C680022908BF256018D039B938464FF0A8
S315080016E0FF4100F03DFA0AD0256038E0012910D103
S315080016F038465C4900F034FA18BF256040D100F03E
S31508001700B3F9212101606FF0004020600220BDE896
S31508001710F08D70B925603146204600F02FFA040096
S3150800172018BF012C40F09A8000F09EF92221016032
S3150800173094E038464FF0FF4100F012FA0AD1084605
S315080017402946FFF7DFF920601AE038464649FFF7D1
S3150800175009FC07D200202946FFF7D4F920600020AB
S31508001760BDE8F08D414900F06DF90CD84FF0FF4007
S315080017702946FFF7C7F9206000F076F922210160B3
S315080017800120BDE8F08D3A483946FFF7BBF900213C
S31508001790FFF7E8FB34BF4FF03F414FF07C51FFF7AE
S315080017A00DFCFFF74DFC8046FFF792F9824631485B
S315080017B05146FFF7A7F90146384600F065F807468F
S315080017C02D485146FFF79EF90146384600F05CF869
S315080017D04FF0334100F036F9824603D82749FFF720
S315080017E0C1FB2DD35146FFF78DF983462448594648
S315080017F0FFF788F9074623485946FFF783F94FF05C
S315080018007C51FFF7DBFB5146FFF77CF982463846E9
S315080018105146FFF7D3FB4FF07E51FFF7CFFB8346C8
S315080018203846514600F030F84FF07E51FFF7C6FBB8
S3150800183001465846FFF7D2F92946FFF763F90546E8
S31508001840256006EB0801204600F098F9040018BF49
S31508001850012C03D100F008F9222101602046BDE8D9
S31508001860F08D00BF000080FF000065C301006543DE
S315080018703BAAB83F0060313FBFBF90390100003333
S315080018809EBFCC3D1354083C90EA010F44BF81F03B
S315080018900041FFF79BBB00BF431A4FF000423EBF13
S315080018A05340C01AC91800BFD3095FEAD05C13EBCE
S315080018B0400F34BFB3EB410F40E07CEBD1530CD360
S315080018C042EA012122D8D1EB402009D3400A28BF99
S315080018D05FEA500140EBCC507047401A15D04002E1
S315080018E0B0FA80F2521C9040400A4FEA3C23B3EB10
S315080018F0026384BF00EB730007E040F400001A1689
S31508001900DB07C2F10102D04018437047182BFCDCF4
S3150800191031FA03F202FA03F3591A38BF42F0010208
S31508001920D2EB40203CBF4000ACF1010C5FEACC5C36
S31508001930C20572F100414CEB5020704713EB400F83
S315080019400FD24B0009D0ACEBD153022B03DB490273
S31508001950172BDDDD70479143401A4300D5D100208F
S31508001960704713EB410FD0D36FF0000070470000AB
S31508001970841A71EB030603D2001BB1411219734195
S315080019804FF4001C1CEB410F34BF7CEB430443E0CF
S315080019900C0DA4EB1356352E50DC45EAC323DB0A9F
S315080019A045EAC121C912B6F120050DDD63FA05F62F
S315080019B0EB4086EA0305124218BF45F00105C01838
S315080019C051F100010CD213E062FA06F5F2405540D7
S315080019D0F3415A40B340F3405A408018594107D35F
S315080019E049085FEA30005FEA350528BF45F001057A
S315080019F001F58011420875F1004250F1000041EBF3
S31508001A000451F0BC4FF4001C1CEB410F38BF704763
S31508001A100020090D090570471CEB410F10D252EA48
S31508001A2043060BD0BCEB410F05D80C0DAB43661E25
S31508001A30342EB5DD02E0AB4380185941F0BC70473F
S31508001A40F0BC70474FF0807C1CEB400F94BF1CEB3A
S31508001A50410F05E040EA010C5FEA4C0C01D28142D5
S31508001A60704718BF88427047014800F0E5B8000083
S31508001A700000002070B5044682B025683148294622
S31508001A80FFF740F800900021FFF7DCFF014694BFFE
S31508001A904FF07C504FF03F40FFF790FA009000213E
S31508001AA0684600F0CAF80098002100F059F832D0CC
S31508001AB001464FF06250FFF725F8064622483146A0
S31508001AC0FFF720F801462846FFF7DEFE05461F48C1
S31508001AD03146FFF717F801462846FFF7D5FE0546B3
S31508001AE01B483146FFF70EF801462846FFF7CCFE9D
S31508001AF0054618483146FFF705F801462846FFF718
S31508001B00C3FE054614483146FEF7FCFF0146284643
S31508001B10FFF7BAFE054625604FF04F410098FFF7DC
S31508001B2021FA03D30D49FFF78DFF04D84FF09E41E4
S31508001B3000F0AAF800900098FFF782FA00F0030078
S31508001B4076BD00BF83F9223F0000C94600A0FD40CC
S31508001B500020A23A000034330030C22E0100004FA4
S31508001B6040EA010C5FEA4C0C07D0884205D14FEADF
S31508001B70400C1CF1807F98BF8042704738B50446F8
S31508001B800D4620684000000EFF2804D12068400258
S31508001B9014D0022032BD20B9204600F0DCF8012816
S31508001BA046DA012D0CDBC0F1FF018D4208D320680F
S31508001BB000284CBF1F484FF0FF402060012032BD6F
S31508001BC04142A942216806DA21F0FF41401941EA5B
S31508001BD0C050206026E022685202401E520A45196B
S31508001BE042F4000205F1180001F0004122601828AD
S31508001BF028BF21601CD200206A4206D02068C2F1A4
S31508001C00200398402368D340236022680A43B0F132
S31508001C10004F226003D808D12078C00705D5206870
S31508001C20401C20604FF0FF3032BD20688842F9D151
S31508001C30002032BD000080FF70470268C2F3C75219
S31508001C40FF2A05D1006840020CBF01200220704718
S31508001C5003685B0016D0C2F19602521A012A11DBFC
S31508001C60182A04DB016801F00041016007E0012140
S31508001C7091400268491E11404A40026011B14FF076
S31508001C80FF3070470020704710B54FF0004C00F049
S31508001C9000434900C0F3C7540A0E1ABFFF2CFF2A97
S31508001CA036E0B1EB400F21D24CEAC1114CEA0020D4
S31508001CB0090AA41A083C07D9B0FBF1FE01FB1E006D
S31508001CC0000223D0083CF7D86442E040B0FBF1FE9E
S31508001CD001FB1E00D0B1B0FA80F18840D21D521A1D
S31508001CE006DB43EA102000EBC25010BD0ED010BD33
S31508001CF0D2F10802202A09DCC2F1200410FA04F104
S31508001D0071F1004120FA02F0584110BD184610BD85
S31508001D1009421ABFFF2CFF2A0FE0B1EB400FE5D2AC
S31508001D200902B1FA81F2914052422442BED14002E0
S31508001D30B0FA80F4A0406442BAE76346DA0912EBC7
S31508001D40400F2CBFD843D14218BFD843BDE8104036
S31508001D50C0F014807047026802F000430121520265
S31508001D60520A02D106E05200491E5FEA022CFAD551
S31508001D705202520A1A430260084670471FB5FFF717
S31508001D8073FE212101601FBD80B54F48006850F0E1
S31508001D9001004D4908604D4800684D4908404B49C7
S31508001DA00860494800684B49084047490860464862
S31508001DB0006830F48020444908604448006830F4DC
S31508001DC0FE00424908605FF41F004349086000F0BE
S31508001DD005F85FF000604149086001BD80B500F074
S31508001DE001F801BD82B0002001900020009036481D
S31508001DF0006850F48030344908603348006810F4AD
S31508001E00003000900198401C01900098002803D1EA
S31508001E100198B0F5A06FF0D12B480068800302D571
S31508001E200120009001E0002000900098012847D189
S31508001E302B48006850F010002949086028480068B7
S31508001E4080088000264908602548006850F002008E
S31508001E50234908601D4800681C4908601B4800683B
S31508001E601A4908601948006850F4806017490860E4
S31508001E701648006830F47C10144908601348006856
S31508001E8050F46410114908600F48006850F08070DB
S31508001E900D4908600C4800688001FBD50B480068AE
S31508001EA080088000094908600848006850F0020068
S31508001EB0064908600548006810F00C000828F9D1A2
S31508001EC002B07047000000000010024004100240F3
S31508001ED00000FFF8FFFFF6FE0810024008ED00E0DC
S31508001EE00020024019E050F8041BCB0744BFA9F1B3
S31508001EF001035918121F0023042A41F8043BF9D29A
S31508001F005FEA827C0B4604D54FF0000CA1F800C0AE
S31508001F109B1CD10744BF0021197050F8042B002AD6
S31508001F20E1D1704710B450F8041B79B102684368D0
S31508001F3012180830DC0744BFA9F10104E31852F867
S31508001F40044B43F8044B091FF9D1ECE710BC704762
S31508001F5010B5074979441831064C7C44163404E018
S31508001F600A68081D511888470146A142F8D110BDD4
S31508001F7008000000280000006DFFFFFF2040000059
S31508001F8008010020000000009DFFFFFF040000007C
S31508001F9078010000000000200000000000F00BF8A7
S31508001FA0002801D0FFF7D4FF0020C046C046FEF740
S31508001FB0BFF800F002F80120704700F001B80000F1
S31508001FC00746384600F002F8FBE70000202109031F
S31508001FD026311820ABBEF9E701488047014800477B
S31508001FE0891D0008E91F0008C046C046C046C0460D
S31508001FF0FFF7D4FFFFF7FEBFFFF7FEBFFFF7FEBFF1
S31508002000FFF7FEBFFFF7FEBFFFF7FEBFFFF7FEBFF6
S31508002010FFF7FEBFFFF7FEBFFFF7FEBFFFF7FEBFE6
S31508002020FFF7FEBFFFF7FEBFFFF7FEBFFFF7FEBFD6
S31508002030FFF7FEBFFFF7FEBFFFF7FEBFFFF7FEBFC6
S31508002040FFF7FEBFFFF7FEBFFFF7FEBFFFF7FEBFB6
S31508002050FFF7FEBFFFF7FEBFFFF7FEBFFFF7FEBFA6
S31508002060FFF7FEBFFFF7FEBFFFF7FEBFFFF7FEBF96
S31508002070FFF7FEBFFFF7FEBFFFF7FEBFFFF7FEBF86
S31508002080FFF7FEBFFFF7FEBFFFF7FEBFFFF7FEBF76
S31508002090FFF7FEBFFFF7FEBFFFF7FEBFFFF7FEBF66
S315080020A0FFF7FEBFFFF7FEBFFFF7FEBFFFF7FEBF56
S315080020B0FFF7FEBFFFF7FEBFFFF7FEBFFFF7FEBF46
S315080020C0FFF7FEBFFFF7FEBFFFF7FEBFFFF7FEBF36
S315080020D0FFF7FEBFFFF7FEBFFFF7FEBFFFF7FEBF26
S315080020E0FFF7FEBFFFF7FEBFFFF7FEBFFFF7FEBF16
S315080020F0FFF7FEBFFFF7FEBFFFF7FEBFFFF7FEBF06
S31108002100FFF7FEBFFFF7FEBF000000005F
S70508001FE9EA
